:100000000C94DB000C9403010C9403010C94030189
:100010000C9403010C9403010C9403010C94190734
:100020000C9403010C9403010C9403010C94030140
:100030000C9403010C9403010C9403010C94030130
:100040000C94CF060C9403010C949B070C94750739
:100050000C9403010C9403010C9403010C94030110
:100060000C94CD070C94030100407A10F35A00A0C1
:10007000724E18090010A5D4E80000E87648170071
:1000800000E40B54020000CA9A3B000000E1F505B1
:10009000000080969800000040420F000000A086FB
:1000A00001000000102700000000E803000000002D
:1000B0006400000000000A000000000001000000D1
:1000C00000002C76D888DC674F0823DFC1DFAE59EB
:1000D000E1B1B796E5E3E453C63AE651997696E87E
:1000E000E6C28426EB898C9B62ED407C6FFCEFBC02
:1000F0009C9F40F2BAA56FA5F490055A2AF75C932D
:100100006B6CF9676DC11BFCE0E40D47FEF520E662
:10011000B500D0ED902E0300943577050080841E45
:10012000080000204E0A000000C80C333333330FA0
:10013000986E12831141EF8D2114893BE65516CF3D
:10014000FEE6DB18D1844B381BF77C1D901DA4BB49
:10015000E424203284725E228100C9F124ECA1E5FE
:100160003D270200000000240027002A00000000B4
:1001700000250028002B00040404040404040402E5
:100180000202020202030303030303010204081034
:100190002040800102040810200102040810200001
:1001A0000000080002010000030407000000000036
:1001B00000000000EC0811241FBECFEFD8E0DEBF26
:1001C000CDBF11E0A0E0B1E0E6E6F3E202C00590A9
:1001D0000D92A83CB107D9F723E0A8ECB1E001C02B
:1001E0001D92A435B207E1F710E0CBEDD0E004C0DA
:1001F0002197FE010E94AB11CA3DD107C9F70E94A9
:1002000035090C94B1110C94000090E0FC01E1560A
:10021000FE4F2491FC01E557FE4F3491FC01E95853
:10022000FE4FE491EE23C9F0222339F0233001F18F
:10023000A8F4213019F1223029F1F0E0EE0FFF1F70
:10024000E359FE4FA591B4918FB7F894EC916111E9
:1002500026C030953E233C938FBF08952730A9F0E8
:100260002830C9F0243049F7809180008F7D03C089
:10027000809180008F7780938000DFCF84B58F7767
:1002800084BDDBCF84B58F7DFBCF8091B0008F77AD
:100290008093B000D2CF8091B0008F7DF9CF3E2BFC
:1002A000DACFCF93DF9390E0FC01E557FE4F249126
:1002B00089589E4FFC0184918823D1F090E0880FEB
:1002C000991FFC01ED59FE4FA591B491FC01E35932
:1002D000FE4FC591D49161110EC09FB7F8948C91D7
:1002E000E22FE0958E238C932881E223E8839FBF41
:1002F000DF91CF9108958FB7F894EC91E22BEC93B6
:100300008FBFF6CF3FB7F89480919A0290919B02ED
:10031000A0919C02B0919D0226B5A89B05C02F3FDD
:1003200019F00196A11DB11D3FBFBA2FA92F982F1B
:100330008827BC01CD01620F711D811D911D42E016
:10034000660F771F881F991F4A95D1F708958F92DE
:100350009F92AF92BF92CF92DF92EF92FF924B01AA
:100360005C010E9482016B017C010E9482016C1978
:100370007D098E099F09683E734081059105A8F3A8
:1003800021E0821A9108A108B10888EEC80E83E026
:10039000D81EE11CF11C81149104A104B10429F7B9
:1003A000FF90EF90DF90CF90BF90AF909F908F9095
:1003B0000895089508959091000189130BC0E2E615
:1003C000F1E0E4919FEF90930001E13049F028F0D3
:1003D000E23061F060E00C94050110926E00FACFFB
:1003E00090916F009D7F90936F00F4CF909170007B
:1003F0009D7F9093700091E09093B0009091B10038
:10040000987F94609093B1001092B300E3CFAF92C5
:10041000BF92CF92DF92EF92FF920F931F93CF93F1
:10042000DF936C017B018B01040F151FEB015E0153
:10043000AE18BF08C017D10759F06991D601ED91E8
:10044000FC910190F081E02DC6010995892B79F787
:10045000C501DF91CF911F910F91FF90EF90DF9039
:10046000CF90BF90AF900895FC01538D448D252F00
:1004700030E0842F90E0821B930B541710F0CF963E
:10048000089501970895FC01918D828D981761F070
:10049000A28DAE0FBF2FB11D5D968C91928D9F5F87
:1004A0009F73928F90E008958FEF9FEF0895FC0166
:1004B000918D828D981731F0828DE80FF11D858D19
:1004C00090E008958FEF9FEF0895FC01918D228DAC
:1004D000892F90E0805C9F4F821B91098F73992731
:1004E00008958EE992E00E94650221E0892B09F4CB
:1004F00020E0822F089580E090E0892B29F00E946F
:10050000710281110C9400000895FC01A48DA80FC4
:10051000B92FB11DA35ABF4F2C91848D90E0019645
:100520008F739927848FA689B7892C93A089B18965
:100530008C91837080648C93938D848D981306C006
:100540000288F389E02D80818F7D80830895EF926A
:10055000FF920F931F93CF93DF93EC0181E0888F7D
:100560009B8D8C8D98131AC0E889F989808185FF4D
:1005700015C09FB7F894EE89FF896083E889F989EF
:1005800080818370806480839FBF81E090E0DF91F1
:10059000CF911F910F91FF90EF900895F62E0B8D44
:1005A00010E00F5F1F4F0F731127E02E8C8D8E11FF
:1005B0000CC00FB607FCFACFE889F989808185FF66
:1005C000F5CFCE010E948502F1CFEB8DEC0FFD2F10
:1005D000F11DE35AFF4FF0829FB7F8940B8FEA8921
:1005E000FB8980818062CFCFCF93DF93EC01888D30
:1005F0008823B9F0AA89BB89E889F9898C9185FD9E
:1006000003C0808186FD0DC00FB607FCF7CF8C912B
:1006100085FFF2CF808185FFEDCFCE010E9485025C
:10062000E9CFDF91CF910895089520910902260F17
:100630003327331F21323105ECF420915202FC01A3
:1006400090E080E0243069F082E00895A0910902F2
:100650002191AC0147515E4FA40FB52FB11D2C93D2
:100660000196861798F380910902680F609309023A
:1006700080E0089581E008951092520281E0809315
:10068000510210922C0261E082E10E94050161E0BA
:1006900083E10E940501E9EBF0E080818E7F808399
:1006A00080818D7F808388E48093B80085E4809387
:1006B000BC000895CF93DF9391E09093E8018823E5
:1006C000B9F0C091B800D091BA008091BC008A7B8B
:1006D0008093BC0060E082E10E94050160E083E15C
:1006E0000E9405010E943C03D093BA00C093B80059
:1006F000DF91CF9108950895E09181028091800269
:10070000E81730F4F0E0E853FE4F808190E0089560
:100710008FEF9FEF089590918102809180022FEFDB
:100720003FEF981748F4E92FF0E0E853FE4F20819F
:1007300030E09F5F90938102C9010895809180020B
:1007400090918102891B990B0895CF92DF92EF92CD
:10075000FF920F931F93CF93DF937C01CB018A010C
:1007600020915802222389F0EB016B01C40ED51EA3
:10077000CC15DD0569F06991D701ED91FC910190EF
:10078000F081E02DC7010995F3CF642F0E94150376
:10079000C801DF91CF911F910F91FF90EF90DF90F3
:1007A000CF900895CF93DF931F92CDB7DEB76983C3
:1007B000209158022223F9F020917E02203258F035
:1007C00021E030E0FC013383228390E080E00F9051
:1007D000DF91CF91089580917F02E82FF0E0E75AF2
:1007E000FD4F998190838F5F80937F0280937E027B
:1007F00081E090E0ECCF61E0CE0101960E9415030C
:10080000F7CFCF92DF92EF92FF920F931F93CF9388
:10081000DF93FC01C48121E020935802C093790248
:1008200010927F0210927E028485682B8BE393E006
:100830000E94D203D0917E02D13208F092C00E9471
:1008400082016B017C0180915202811165C082E0BE
:100850008093520281E0809351028FEF8093500287
:1008600010924F02D0934E02A9E5B2E0EEE2F2E020
:1008700080E0D81385C010922D0280912D02CC0FFC
:10088000C82BC0932D0280912C02813009F07CC0CE
:1008900010922C020E9482016B017C0180912D023A
:1008A0008093BB008091540290915502A091560212
:1008B000B0915702892B8A2B8B2B99F00E948201D1
:1008C0000091540210915502209156023091570226
:1008D0006C197D098E099F09061717072807390724
:1008E000E0F18091BC0083FDD9CF85EC8093BC0002
:1008F0000E9482016B017C0180915202823009F4D6
:1009000045C0809150028F3F61F18091500280324A
:1009100041F18091500225C080915402909155027E
:10092000A0915602B0915702892B8A2B8B2B09F488
:100930008ACF0E94820100915402109155022091A9
:100940005602309157026C197D098E099F090617CE
:1009500017072807390708F076CF809153020E94C5
:100960005A0310927F0210927E0210925802DF9179
:10097000CF911F910F91FF90EF90DF90CF9008954E
:100980009D9191938F5F75CF85EEB0CF809154028A
:1009900090915502A0915602B0915702892B8A2B53
:1009A0008B2B09F4A9CF0E9482010091540210916F
:1009B000550220915602309157026C197D098E091B
:1009C0009F09061717072807390708F095CFC5CFE5
:1009D00090E080E008950F931F93CF938C01C62F72
:1009E0000E9401046C2F6460C8010E9401046C2FF6
:1009F0006B7FC8010E94010483EC90E00197F1F73E
:100A0000CF911F910F9108950F931F93CF93DF9371
:100A10008C01D62FC42F607F642B0E94EB0480E1F1
:100A2000D89FB00111246C2BC801DF91CF911F9189
:100A30000F910C94EB04CF93DF93CDB7DEB72897DB
:100A40000FB6F894DEBF0FBECDBF98E0E1E0F1E055
:100A5000DE01119601900D929A95E1F790914F0366
:100A6000981708F48FEF90E0880F991F21E030E08D
:100A70002C0F3D1F820F931FFC016081606840E0D6
:100A800087E493E028960FB6F894DEBF0FBECDBF83
:100A9000DF91CF910C94040540E061E087E493E09E
:100AA0000E9404058BE39FE10197F1F780915003C9
:100AB000882319F080E00C941B05089541E00E9402
:100AC000040581E090E00895FB0101900020E9F722
:100AD0003197AF01461B570BDC01ED91FC91028071
:100AE000F381E02D09948F929F92AF92BF920F9362
:100AF0001F93CF93DF93CDB7DEB7A1970FB6F894CE
:100B0000DEBF0FBECDBF19A2423008F44AE08E010D
:100B10000F5D1F4F842E912CB12CA12CA5019401A7
:100B20000E948911E62FB901CA01EA3004F5E05D9F
:100B3000D801EE938D01232B242B252B79F790E000
:100B400080E0109729F0BD018EE992E00E946405D3
:100B5000A1960FB6F894DEBF0FBECDBFDF91CF9147
:100B60001F910F91BF90AF909F908F900895E95C77
:100B7000DFCF4F925F926F927F928F929F92AF9250
:100B8000BF92CF92DF92EF92FF920F931F93CF937A
:100B90006B017C01742EAC019B010E94841169E3FE
:100BA00071E0811126C046015701E894B7F82FEF94
:100BB0003FEF4FE75FE7C501B4010E948411811147
:100BC0000CC02FEF3FEF4FE75FE7C501B4010E9474
:100BD000BA0F6DE371E0181664F02FEF3FEF4FE7A7
:100BE0005FE4C701B6010E9412111816ACF461E46B
:100BF00071E08EE992E0CF911F910F91FF90EF90FD
:100C0000DF90CF90BF90AF909F908F907F906F902C
:100C10005F904F900C9464052FEF3FEF4FE75FEC30
:100C2000C701B6010E94BA0F87FDE1CF20E030E096
:100C3000A901C701B6010E94BA0F10E000E087FFCA
:100C40000AC06DE28EE992E00E94A7028C01F7FAD9
:100C5000F094F7F8F094C0E060E070E080E09FE38B
:100C60007C1641F020E030E040E251E40E94BF0FEA
:100C7000CF5FF6CFA70196010E944E0F2B013C01DA
:100C80000E9431104B015C014AE00E9473057C0117
:100C9000E00EF11ECC23C1F1C501B4010E94601029
:100CA0009B01AC01C301B2010E944D0F4B015C01DD
:100CB0006EE28EE992E00E94A702E80EF91EC15092
:100CC00018F120E030E040E251E4C501B4010E9497
:100CD00017112B013C010E9431104B01B12CA12CAA
:100CE0004AE0C501B4010E947305E80EF91EC50172
:100CF000B4010E9460109B01AC01C301B2010E94CB
:100D00004D0F4B015C01DBCFC701CF911F910F91BC
:100D1000FF90EF90DF90CF90BF90AF909F908F901B
:100D20007F906F905F904F9008950C94640585EDCF
:100D30008093BC008091540290915502A09156027C
:100D4000B09157020796A11DB11D23E0B695A79556
:100D5000979587952A95D1F72091BC0024FD03C073
:100D600010925202089540915402509155026091A0
:100D7000560270915702452B462B472B69F300977B
:100D8000A105B10541F02AE22A95F1F700C00197CB
:100D9000A109B109E1CF809153020C945A031F922B
:100DA0000F920FB60F9211242F933F938F939F931F
:100DB000AF93BF938091960290919702A091980271
:100DC000B09199023091950223E0230F2D3758F509
:100DD0000196A11DB11D20939502809396029093D8
:100DE0009702A0939802B093990280919A029091F1
:100DF0009B02A0919C02B0919D020196A11DB11D84
:100E000080939A0290939B02A0939C02B0939D02C0
:100E1000BF91AF919F918F913F912F910F900FBEF6
:100E20000F901F90189526E8230F0296A11DB11D63
:100E3000D2CF1F920F920FB60F9211242F933F9390
:100E40004F935F936F937F938F939F93AF93BF93D2
:100E5000EF93FF938091870290918802A09189027D
:100E6000B0918A02892B8A2B8B2BD1F1909182022F
:100E7000E0918302F09184028081892780838091B0
:100E8000870290918802A0918902B0918A02181677
:100E900019061A061B069CF480918702909188021D
:100EA000A0918902B0918A020197A109B1098093AA
:100EB000870290938802A0938902B0938A02FF91DF
:100EC000EF91BF91AF919F918F917F916F915F91C2
:100ED0004F913F912F910F900FBE0F901F9018953B
:100EE000809100010E94DB01EACF1F920F920FB6A2
:100EF0000F9211242F933F934F935F936F937F93A0
:100F00008F939F93AF93BF93EF93FF938EE992E0FC
:100F10000E948502FF91EF91BF91AF919F918F91B8
:100F20007F916F915F914F913F912F910F900FBEE5
:100F30000F901F9018951F920F920FB60F921124C9
:100F40002F938F939F93EF93FF93E091AE02F091D5
:100F5000AF028081E091B402F091B50282FD1BC026
:100F600090818091B7028F5F8F732091B8028217B2
:100F700041F0E091B702F0E0E256FD4F958F80938B
:100F8000B702FF91EF919F918F912F910F900FBE1C
:100F90000F901F9018958081F4CF1F920F920FB67B
:100FA0000F9211242F933F934F935F936F937F93EF
:100FB0008F939F93AF93BF93EF93FF938091B9006B
:100FC000887F803609F44AC0F0F5883209F4A7C05A
:100FD00018F5803109F49BC0B8F4882309F4F9C0EE
:100FE000883009F494C0FF91EF91BF91AF919F9128
:100FF0008F917F916F915F914F913F912F910F90C2
:101000000FBE0F901F901895883109F488C0803268
:1010100051F78093500214C0803409F49DC040F40D
:101020008033B9F38833F9F68093500285ECB0C071
:10103000803509F485C0883509F496C0883499F65E
:101040000E949706D0CF883909F48CC038F58837CC
:1010500029F050F4883611F0803729F683E0809328
:10106000520210922B0257C0883809F47BC0803995
:1010700019F0803809F0B7CF80912B02803208F048
:1010800071C0E0912B0281E08E0F80932B02809142
:10109000BB00F0E0E55FFD4F80833DC0803B39F051
:1010A000E0F4803A09F479C0883A09F09CCF84E0F2
:1010B0008093520210920A0210920902E0917C027F
:1010C000F0917D0209958091090281110FC081E0A4
:1010D000809309021092E90109C0803C09F4A6CF6F
:1010E000883C09F4A3CF883B09F07DCFE0910A0248
:1010F00081E08E0F80930A02F0E0E751FE4F80817D
:101100008093BB0090910A028091090229C08091CE
:101110002D028093BB0085EC8093BC0064CF90913E
:101120004F0280914E02981758F5E0914F0281E0EE
:101130008E0F80934F02F0E0E25DFD4F8081E9CF9A
:10114000E0914F0281E08E0F80934F028091BB00AF
:10115000F0E0E25DFD4F808390914F0280914E025E
:101160009817C8F285E8D8CFE0914F0281E08E0F42
:1011700080934F028091BB00F0E0E25DFD4F8083E1
:101180008091510281115CCF81E080932C0284EA2E
:101190008093BC001092520226CF85EC8093BC0055
:1011A0001092520280912B02803230F4E0912B0297
:1011B000F0E0E55FFD4F108260912B0270E0E0915E
:1011C0007A02F0917B028BE092E0099510922B025B
:1011D0000ACF1092500234CFEEE9F2E0138212826D
:1011E00088EE93E0A0E0B0E084839583A683B78384
:1011F0002DE031E03183208325EC30E035872487F2
:1012000024EC30E03787268720EC30E0318B208BD0
:1012100021EC30E0338B228B22EC30E0358B248BB9
:1012200026EC30E0378B268B118E128E138E148EA7
:10123000EBE3F3E01382128284839583A683B78362
:101240008FE191E091838083E7E4F3E013821282DF
:1012500081E391E091838083118687E2848380E13A
:10126000828782E0838714860895CF93DF93CDB77A
:10127000DEB72E970FB6F894DEBF0FBECDBF7894C1
:1012800084B5826084BD84B5816084BD85B582608B
:1012900085BD85B5816085BD80916E00816080933C
:1012A0006E001092810080918100826080938100A5
:1012B00080918100816080938100809180008160B5
:1012C000809380008091B10084608093B100809110
:1012D000B00081608093B00080917A008460809338
:1012E0007A0080917A00826080937A0080917A00FF
:1012F000816080937A0080917A00806880937A0080
:101300001092C10061E085E00E94510161E086E039
:101310000E94510161E087E00E94510161E089E093
:101320000E94510160E08EE00E9451011092810202
:101330001092800210927F0210927E020E943C0363
:1013400089ED91E090937D0280937C028AED91E09B
:1013500090937B0280937A0210924C038091520307
:10136000823018F098E090934C0380934F0362E32F
:1013700070E080E090E00E94A7016091530387E451
:1013800093E00E94010468EE73E080E090E00E9428
:10139000A70160E387E493E00E94EB040BE416E40A
:1013A000C8010197F1F760E387E493E00E94EB0442
:1013B000C8010197F1F760E387E493E00E94EB0432
:1013C00083E592E00197F1F760E287E493E00E9401
:1013D000EB0460914C03606240E087E493E00E947C
:1013E000040584E080934D0340E06CE087E493E0E3
:1013F0000E9404050E944C0512E010934E0340E049
:1014000066E087E493E00E94040540E062E087E440
:1014100093E00E9404058BE39FE10197F1F788E0D8
:101420008093530360E087E493E00E9401040E94EC
:101430004C0580E00E941B056FE471E087E493E0B7
:101440000E94950681E00E941B056FE571E087E42C
:1014500093E00E94950660EB74E080E090E00E94CB
:10146000A7010E944C05E091AE02F091AF021083FB
:10147000E091AA02F091AB021082E091AC02F091EF
:10148000AD028FEC80831092B602E091B202F0912F
:10149000B30286E08083E091B002F091B1028081D6
:1014A00080618083E091B002F091B1028081886018
:1014B0008083E091B002F091B102808180688083E6
:1014C000E091B002F091B10280818F7D808344244D
:1014D0004A94542C320150E8252E51E0352E64E90F
:1014E000C62E61E0D62E1AE0812C912C540180E4A6
:1014F00080937C0080917A00806480937A00809150
:101500007A0086FDFCCF8091780090917900092EB9
:10151000000CAA0BBB0B880E991EAA1EBB1E6AE00C
:1015200070E080E090E00E94A701115001F7C50132
:10153000B4010E94621020E030E040E251E40E94D9
:10154000BF0F6B877C878D879E8720E030EC4FE74D
:1015500054E40E94BF0F20E030E04AE754E40E94C8
:1015600017114B015C01E0909302F090940291E01E
:10157000E916F10409F473C0E2E0EE16F10409F48F
:1015800084C0E114F10439F0109294021092930295
:10159000F12CE12C1EC020E030E040E253E4C50114
:1015A000B4010E94121187FD0AC020E030E04AEA2F
:1015B00053E4C501B4010E94BA0F87FD85C020E045
:1015C00030E044EB53E4C501B4010E94121187FFDF
:1015D00085C061E085E00E94050161E0F1E0EF1661
:1015E000F10409F060E086E00E94050161E082E01C
:1015F000E816F10409F060E087E00E94050192E03E
:10160000E916F10409F08EC180910001893009F0DA
:101610006FC0E2E6F1E0149117FD09C161E089E0D5
:101620000E945101112309F4D2C0123009F0E3C025
:101630008091B100887F83608093B1008CE78093B4
:10164000B3004092870250928802609289027092A1
:101650008A0280917000826080937000E8C020E070
:1016600030E04CE053E4C501B4010E94BA0F87FD9D
:101670008BCF20E030E044EB53E4C501B4010E947D
:10168000121187FF2BC060E0A5CF20E030E04AEACE
:1016900053E4C501B4010E94BA0F87FF0AC020E0DD
:1016A00030E040E253E4C501B4010E94121187FF0B
:1016B0000BC020E030E04CE053E4C501B4010E94CF
:1016C000BA0F87FFE0CF60CF81E090E09093940263
:1016D00080939302EE24E394F12CD5CFE2E0F0E086
:1016E000F0939402E093930232E0E32EF12CCBCFFF
:1016F0008F3F09F09CC089E080930001E2E6F1E0B1
:1017000014911F3F09F493C0113019F150F01230B9
:1017100009F43CC017FD8BC061E089E00E945101D3
:1017200084CF14BC15BC84B5826084BD85B581604E
:1017300085BDF1018491E82FF0E0EE0FFF1FE35922
:10174000FE4F85919491F60184918093860210E07A
:1017500065CF109280001092810080918100886096
:101760008093810080918100816080938100F101EC
:101770008491E82FF0E0EE0FFF1FE359FE4F8591B3
:101780009491F60184918093850248CF1092B00025
:101790001092B1008091B00082608093B00080917F
:1017A000B10081608093B100F1018491E82FF0E0F5
:1017B000EE0FFF1FE359FE4F8591949190938402A1
:1017C00080938302F60184918093820227CF85B5AE
:1017D000887F836085BD8DE387BD40928F025092E4
:1017E0009002609291027092920280916E008260EB
:1017F00080936E001CC0113009F0BDC08091810043
:10180000887F8160809381008FE99FE090938900B9
:101810008093880040928B0250928C0260928D02DD
:1018200070928E0280916F00826080936F0080E0E2
:101830000E941B056FE671E087E493E00E94950625
:101840008E010F5F1F4F21E046E0C501B4010E94E9
:10185000C10CB80187E493E00E94950665E771E04A
:1018600087E493E00E94950681E00E941B056DE7E6
:1018700071E0E114F10441F06EE871E091E0E916E5
:10188000F10411F06FE971E087E493E00E9495069E
:1018900060EB71E08EE992E00E94950641E06B8575
:1018A0007C858D859E850E94B90565EB71E08EE98A
:1018B00092E00E94950641E0C501B4010E94B9057D
:1018C0006CEB71E08EE992E00E9495066AE471E0AB
:1018D000E2E0EE16F10439F065E471E0EA94EF28F5
:1018E00011F466E971E08EE992E00E94640565EC0E
:1018F00071E08EE992E00E94640564EF71E080E09F
:1019000090E00E94A70180E090E0892B09F4EBCDE4
:101910000E947102882309F4DECD0E940000DBCD15
:101920008FE98DCE89E00E94DB0160E089E00E94B2
:1019300005017DCF80E00E941B056FE671E087E422
:1019400093E00E9495068E010F5F1F4F21E046E055
:10195000C501B4010E94C10CB80187E493E00E9464
:10196000950665E771E087E493E00E94950681E0C3
:101970000E941B0581CF123099F21111DBCF8FE944
:101980002BCFEF920F931F93CF93DF93E80134E0B7
:1019900047FD34E1042E000C550B57FF03C0519551
:1019A00041955109E32E022F242FAE010E94DF0C36
:1019B000CE01DF91CF911F910F91EF900895A9E093
:1019C000B0E0E5EEFCE00C941C0F6A01F22EB02EA4
:1019D000102FFBE3AF2EA01608F41BE31F5F012FAF
:1019E00027E0AE014F5F5F4F0E943E0EBC01898130
:1019F000982F9970913009F43FC09BE2E1FC04C03C
:101A00009E2D9170E0FC3AC05E2D5071E82FE87079
:101A100083FF46C084E0911101C083E0EF2DE81BF5
:101A20008F1508F0E0E0D6018E2F20E2552351F10A
:101A3000992329F0D6019C93C60101966C01960169
:101A40002D5F3F4FE2FE24C08EE4D6018C9391E4DB
:101A500011969C93119712968C93D9018E2F90E238
:101A600081111BC0E20FF32FF11D10828EEF9FEF4B
:101A70002996ECE00C94380F9DE2C6CF90E2C4CFDB
:101A80002D9381508111FCCFCE0ED11CE0E0D0CF40
:101A90008EE6D6018C9391E6DBCF9D938150E0CF0B
:101AA000482F447082FF3DC084E0911101C083E063
:101AB0008F1510F4EF2DE81BD6018E2F20E2552351
:101AC00009F1992329F0D6019C93C60101966C0176
:101AD00096012D5F3F4FE2FE1BC089E4D6018C9337
:101AE0008EE411968C93119786E412968C93D9010B
:101AF0008E2F90E2882309F4B5CF9D938150FACFC1
:101B00002D9381508111FCCFCE0ED11CE0E0D9CFB6
:101B100089E6D6018C938EE611968C93119786E612
:101B2000E4CF9B0177FF02C030E020E0A1E0B0E00D
:101B3000911102C0B0E0A0E0F9013196AE0FBF1FD5
:101B40008B2C912CBB2009F461C05401EFEFAE1A2D
:101B5000BE0AAA0DBB1DFA161B0619F014F04F2D74
:101B60004A1B511188C0E3FC59C07601A42FB0E292
:101B7000A1114FC0C40ED11C992309F45BC040E0F1
:101B8000D6011196F60190836D01552309F448C0E2
:101B9000012F060F9A81582F507184FF03C0913393
:101BA00009F4015010160CF047C0093008F008E0A5
:101BB000EEE2FE2E5B01A01AB1088501919481949A
:101BC00091082F3F320729F4D601FC92F601319695
:101BD0006F016217730794F1021713077CF5DB019D
:101BE000A21BB30BAA24A394B12CAC0EBD1EAA0D4C
:101BF000BB1D11968C9121503109D60111962815E3
:101C00003905F4F0F60180836D01DBCFB12CA12CF6
:101C1000A0CFF701B1937F01A150AACF9111B0CF0E
:101C2000D601942F50E302C05D9391509111FCCFE7
:101C3000C40ED11C40E0ACCF01E0BACF80E3DBCFD3
:101C40006217730731F4963388F4953311F45523F2
:101C500069F0F6018083FD01842F90E2811108C0B4
:101C6000A40FB11D1C9290E080E002CF81E3F1CF80
:101C700091938150F3CF911183CF8ACF283008F010
:101C800027E03327DA01990F311D87FD9160009617
:101C90006105710539F432602E5F3D9330E32A957A
:101CA000E1F708959F3F30F080387105610509F034
:101CB0003C5F3C5F3D93913008F08068911DDF935D
:101CC000CF931F930F93FF92EF92192F987F9695C2
:101CD000E92F96959695E90FFF27EE53FF4F992729
:101CE0003327EE24FF24A701E70105900894079409
:101CF00028F4360FE71EF81E491F511D660F771F87
:101D0000881F991F0694A1F70590079428F4E70E01
:101D1000F81E491F561FC11D770F881F991F661F88
:101D20000694A1F70590079428F4F80E491F561F52
:101D3000C71FD11D880F991F661F771F0694A1F733
:101D40000590079420F4490F561FC71FD81F990FFD
:101D5000661F771F881F0694A9F784911095177046
:101D600041F0D695C79557954795F794E7941A95FE
:101D7000C1F7E8E6F0E0689415901591359165910A
:101D8000959105907FE27395E118F10A430B560B8C
:101D9000C90BD009C0F7E10CF11E431F561FC91F24
:101DA000D01D7EF4703311F48A95E6CFE89401508B
:101DB00030F0080F0AF40027021708F4202F2395AB
:101DC000022F7A3328F079E37D932A95E9F710C042
:101DD0007D932A9589F6069497956795379517957B
:101DE0001794E118F10A430B560BC90BD00998F070
:101DF00023957E9173957A3308F070E37C932013DA
:101E0000B8F77E9170617D9330F0839571E37D9397
:101E100070E32A95E1F71124EF90FF900F911F9145
:101E2000CF91DF91992787FD909508952F923F924A
:101E30004F925F926F927F928F929F92AF92BF92DA
:101E4000CF92DF92EF92FF920F931F93CF93DF9386
:101E5000CDB7DEB7CA1BDB0B0FB6F894DEBF0FBEE3
:101E6000CDBF09942A88398848885F846E847D8430
:101E70008C849B84AA84B984C884DF80EE80FD8032
:101E80000C811B81AA81B981CE0FD11D0FB6F894A8
:101E9000DEBF0FBECDBFED0108955058BB27AA2766
:101EA0000E94650F0C94D8100E94CA1038F00E944E
:101EB000D11020F039F49F3F19F426F40C94C71088
:101EC0000EF4E095E7FB0C94C110E92F0E94E91095
:101ED00058F3BA17620773078407950720F079F45F
:101EE000A6F50C940B110EF4E0950B2EBA2FA02D35
:101EF0000B01B90190010C01CA01A0011124FF27B7
:101F0000591B99F0593F50F4503E68F11A16F040B1
:101F1000A22F232F342F4427585FF3CF46953795B0
:101F20002795A795F0405395C9F77EF41F16BA0B75
:101F3000620B730B840BBAF09150A1F0FF0FBB1F23
:101F4000661F771F881FC2F70EC0BA0F621F731F6C
:101F5000841F48F4879577956795B795F7959E3FC9
:101F600008F0B0CF9395880F08F09927EE0F97955A
:101F7000879508950E949D1008F481E008950E94BD
:101F8000D30F0C94D8100E94D11058F00E94CA10A0
:101F900040F029F45F3F29F00C94C11051110C94CA
:101FA0000C110C94C7100E94E91068F39923B1F347
:101FB000552391F3951B550BBB27AA27621773076F
:101FC000840738F09F5F5F4F220F331F441FAA1F03
:101FD000A9F335D00E2E3AF0E0E832D091505040BF
:101FE000E695001CCAF72BD0FE2F29D0660F771F6D
:101FF000881FBB1F261737074807AB07B0E809F053
:10200000BB0B802DBF01FF2793585F4F3AF09E3FD7
:10201000510578F00C94C1100C940C115F3FE4F35F
:10202000983ED4F3869577956795B795F7959F5F1A
:10203000C9F7880F911D9695879597F90895E1E066
:10204000660F771F881FBB1F621773078407BA07C5
:1020500020F0621B730B840BBA0BEE1F88F7E09520
:1020600008950E94F11088F09F5798F0B92F992792
:10207000B751B0F0E1F0660F771F881F991F1AF073
:10208000BA95C9F714C0B13091F00E940B11B1E0BC
:1020900008950C940B11672F782F8827B85F39F0BB
:1020A000B93FCCF3869577956795B395D9F73EF40C
:1020B00090958095709561957F4F8F4F9F4F0895B4
:1020C000E89409C097FB3EF49095809570956195D2
:1020D0007F4F8F4F9F4F9923A9F0F92F96E9BB2788
:1020E0009395F695879577956795B795F111F8CF04
:1020F000FAF4BB0F11F460FF1BC06F5F7F4F8F4F6F
:102100009F4F16C0882311F096E911C0772321F064
:102110009EE8872F762F05C0662371F096E8862FFC
:1021200070E060E02AF09A95660F771F881FDAF753
:10213000880F9695879597F90895990F0008550F80
:10214000AA0BE0E8FEEF16161706E807F907C0F03D
:1021500012161306E407F50798F0621B730B840B45
:10216000950B39F40A2661F0232B242B252B21F41F
:1021700008950A2609F4A140A6958FEF811D811DBF
:10218000089597F99F6780E870E060E008959FEFF9
:1021900080EC089500240A941616170618060906FE
:1021A000089500240A9412161306140605060895CD
:1021B000092E0394000C11F4882352F0BB0F40F455
:1021C000BF2B11F460FF04C06F5F7F4F8F4F9F4F95
:1021D000089557FD9058440F551F59F05F3F71F017
:1021E0004795880F97FB991F61F09F3F79F087957E
:1021F0000895121613061406551FF2CF4695F1DF07
:1022000008C0161617061806991FF1CF8695710596
:10221000610508940895E894BB2766277727CB01CA
:1022200097F908950E949D1008F48FEF08950E9479
:102230002A110C94D8100E94CA1038F00E94D110B4
:1022400020F0952311F00C94C1100C94C7101124A8
:102250000C940C110E94E91070F3959FC1F3950F37
:1022600050E0551F629FF001729FBB27F00DB11D1A
:10227000639FAA27F00DB11DAA1F649F6627B00DAA
:10228000A11D661F829F2227B00DA11D621F739F93
:10229000B00DA11D621F839FA00D611D221F749FA1
:1022A0003327A00D611D231F849F600D211D822FE8
:1022B000762F6A2F11249F5750409AF0F1F088230F
:1022C0004AF0EE0FFF1FBB1F661F771F881F91503C
:1022D0005040A9F79E3F510580F00C94C1100C941A
:1022E0000C115F3FE4F3983ED4F38695779567959C
:1022F000B795F795E7959F5FC1F7FE2B880F911D66
:102300009695879597F908950E949D10880B990BD3
:102310000895A1E21A2EAA1BBB1BFD010DC0AA1F26
:10232000BB1FEE1FFF1FA217B307E407F50720F03E
:10233000A21BB30BE40BF50B661F771F881F991FB9
:102340001A9469F760957095809590959B01AC0102
:10235000BD01CF010895EE0FFF1F0590F491E02D10
:062360000994F894FFCF80
:10236600FF000040001400540000000000A7020710
:10237600023402F40265024302570200000000D252
:1023860003A503E8047B039E038B037C0300000084
:10239600005E050702E80414036E616E00696E664E
:1023A600006F76660053414645004849474800415C
:1023B6006D6D6F6E6961204D6F6E69746F72004945
:1023C6006E697469616C697A696E672E2E2E004E8D
:1023D60048333A20002070706D202020005374612D
:1023E6007475733A205341464520202020005374CB
:1023F600617475733A204D4F44455241544500531C
:1024060074617475733A204849474820202020009B
:102416004144433D00202050504D3D0020204C6556
:0824260076656C3D000D0A0013
:00000001FF
